:04000000A304470A04
:1000080010000D023000110011022D0010022C000A
:10001800010CCC0130000D0231000306B102000CC6
:10002800F101200C9001110143071B0A1C0A410A27
:1000380070007100010C1000DB013B003C0C9B01BF
:100048004307270A280A410A7B00010CDE013E000B
:100058003C0C9E014307310A320A410A7E00010C1A
:10006800DD013D000D0C9D0143073B0A3C0A410A96
:100078007D00BD02410A410A410AAB04430A10004F
:1000880010022D001F00A304490AA3044B0A78009C
:1000980079007A007B007C0011007000710010006C
:1000A800A3045F09A3043D00A3046009A3043E0060
:1000B8001000A304630A0C080C08A305CE0B11005A
:1000C80067006800C80C02006A001000670068003A
:1000D800000C0700800C08001300A5050B05A304FD
:1000E8006109A304E00B100067006800E806DF0B55
:1000F8007C00BC027800B802E00B1B023A000A0C34
:10010800DA013A003C0C9A0003078D0AC40CDA01A4
:100118003A001B023900030CD90139003C0C990044
:100128000307990AC40CD9013900020C3C00E00B02
:100138001D07A10A10008705A30A100087041D02E5
:100148003600010C370003043603F702A70A160726
:10015800B00A1000A705B20A1000A7041D02360055
:10016800020C370003043603F702B60A1607BF0A63
:100178001000C705C10A1000C7041D023600030C91
:10018800370003043603F702C50A1607CE0A100023
:10019800E705D00A1000E7041E07D50A1000080575
:1001A800D70A100008041E023600010C37000304A9
:1001B8003603F702DB0A1607E40A10002805E60AE8
:1001C800100028041E023600020C37000304360310
:1001D800F702EA0A1607F30A10004805F50A1000A4
:1001E80048041E023600030C370003043603F702E6
:1001F800F90A1607020B10006805040B10006804C2
:100208001E023600040C370003043603F702080BFD
:100218001607110B10008805130B100088041E0226
:100228003600050C370003043603F702170B1607D0
:10023800200B1000A805220B1000A8041B07270B91
:100248001000C805290B1000C804E80678001B0236
:1002580036001A02960143067C001B02360019027A
:100268009601E00B0B04E8064C0B7B00010CDE0149
:100278003E003C0C9E014307510B7E00010CDD0142
:100288003D000D0C9D014307510B7D00BD02510B34
:10029800E807510B0B05020C3C001D07560B10001C
:1002A8008705580B100087041D023600010C370023
:1002B80003043603F7025C0B1607650B1000A7054D
:1002C800670B1000A7041D023600020C3700030458
:1002D8003603F7026B0B1607740B1000C705760B75
:1002E8001000C7041D023600030C37000304360350
:1002F800F7027A0B1607830B1000E705850B100031
:10030800E7041E078A0B100008058C0B1000080470
:100318001E023600010C370003043603F702900B67
:100328001607990B100028059B0B100028041E02C5
:100338003600020C370003043603F7029F0B16073A
:10034800A80B10004805AA0B100048041E0236002E
:10035800030C370003043603F702AE0B1607B70B7E
:1003680010006805B90B100068041E023600040C62
:10037800370003043603F702BD0B1607C60B10003F
:100388008805C80B100088041E023600050C3700CB
:1003980003043603F702CC0B1607D50B1000A8058B
:1003A800D70B1000A804F50C3600DA0BF602D90BAF
:1003B800DD0BE00B10007C0010001C02000F430650
:1003C800770A010F4306810A030F43069C0A010FAF
:0803D8004306360BDE0BE00BBF
:10079C0010007500B5027300740014022F001302D0
:1007AC002E000F02800F2C00800C8C004307E00BF6
:1007BC00080C8E0003061E001000150227001502FF
:1007CC00280015023100D1013500060C3200500C06
:1007DC003100F102EF0BF202EF0B0000010C2C00C8
:1007EC006D000C021000F3010306B4020D02F401BB
:0207FC00D30B1D
:021FFE00F000F1
:00000001FF
