:04000000A304490A02
:1000080010000D0230004605110015022D001402E3
:100018002C00010CCC0134000D0235000306B5029A
:10002800000CF501200C9401150143071C0A1D0A58
:10003800420A74007500010C1000DB013B003C0C07
:100048009B014307280A290A420A7B00010CDE01AA
:100058003E003C0C9E014307320A330A420A7E00E6
:10006800010CDD013D000D0C9D0143073C0A3D0AD2
:10007800420A7D00BD02420A420A420A10004604B2
:10008800AB04460A10022D001F00A3044B0AA30468
:100098004D0A780079007A007B007C00110070001E
:1000A800710072007300740075001000A3046909E0
:1000B800A3043D00A3046A09A3043E001000A3059D
:1000C800150AA304AD0AA3046B0A030806080B0467
:1000D80010007500B5027300740014022F0013029B
:1000E8002E000F02800F2C00800C8C0043077E0A24
:1000F800080C8E000306AB0A100015022700150233
:10010800280015023100D1013500060C3200500CD0
:100118003100F1028D0AF2028D0A0000010C2C0058
:100128006D000C021000F3010306B4020D02F40185
:1001380014022F0013022E000F02800F2C00800CD7
:100148008C004307A90A080C8E000307800A0B05D8
:100158001E00100012022F0011022E000F02800F45
:100168002C00800C8C004307BB0A010C8E0003078F
:100178001E001A0C10003300F302C00AC30AFF0C59
:100188002C00FF0C2D000C021000F1010306B20236
:060198000D02F201AD0AA8
:10042A00110067006800C80C02006A00100066002C
:10043A0067006800000C0600000C0700800C08002A
:10044A001300A5050B05A3046709A305EF0B10000C
:10045A0067006800E807E60A7C00090B1B023A00FD
:10046A000A0CDA013A003C0C9A0003073F0AC40C52
:10047A00DA013A001B023900030CD90139003C0C9D
:10048A00990003074B0AC40CD9013900020C3C003D
:10049A00EF0B1D07530A1000E705550A1000E70481
:1004AA001D023600010C370003043603F702590A0D
:1004BA001607620A1000C705640A1000C7041D0265
:1004CA003600020C370003043603F702680A1607DF
:1004DA00710A1000A705730A1000A7041D0236004E
:1004EA00030C370003043603F702770A1607800A5B
:1004FA0010008705820A100087041E07870A100069
:10050A000805890A100008041E023600010C37008B
:10051A0003043603F7028D0A1607960A1000280507
:10052A00980A100028041E023600020C3700030441
:10053A003603F7029C0A1607A50A10004805A70AFF
:10054A00100048041E023600030C37000304360369
:10055A00F702AB0A1607B40A10006805B60A1000BB
:10056A0068041E023600040C370003043603F7023F
:10057A00BA0A1607C30A10008805C50A10008804BB
:10058A001E023600050C370003043603F702C90AB7
:10059A001607D20A1000A805D40A1000A8041B07DF
:1005AA00D90A1000C805DB0A1000C8041B0236006D
:1005BA001A0296014306EE0BE806EB0A18024307F5
:1005CA00EB0A7C00BC027800B802EF0B1B02360073
:1005DA00190296014306E806010BD8004307010BEE
:1005EA00030C3C00320C11003200000C3300020CE8
:1005FA003000000C3100EF0B1000E807EF0BD800B9
:10060A004307EF0B020C3C007800EF0B0B04E806E3
:10061A00540B7B00010CDE013E003C0C9E0143079B
:10062A00200B7E00010CDD013D000D0C9D014307EE
:10063A00200B7D00BD02110011022D0010022C00BA
:10064A00FF0CCC0130000D0231000306B102FF0C91
:10065A00F1011002110143075A0B13022F00120273
:10066A002E000F02800F2C00800C8C0043073F0BDA
:10067A00060C8E0003075A0B030C11003000000C05
:10068A00310013022D0012022C00FB0CCC013200A7
:10069A000D0233000306B302FF0CF3015A0B1000DC
:1006AA00E8075A0B0B057C00BC0210001D07600B03
:1006BA001000E705620B1000E7041D023600010C6A
:1006CA00370003043603F702660B16076F0B100098
:1006DA00C705710B1000C7041D023600020C370053
:1006EA0003043603F702750B16077E0B1000A705E5
:1006FA00800B1000A7041D023600030C3700030408
:10070A003603F702840B16078D0B100087058F0B33
:10071A00100087041E07940B10000805960B1000A2
:10072A0008041E023600010C370003043603F702E0
:10073A009A0B1607A30B10002805A50B1000280416
:10074A001E023600020C370003043603F702A90B17
:10075A001607B20B10004805B40B100048041E021D
:10076A003600030C370003043603F702B80B1607EA
:10077A00C10B10006805C30B100068041E02360086
:10078A00040C370003043603F702C70B1607D00B15
:10079A0010008805D20B100088041E023600050CD2
:1007AA00370003043603F702D60B1607DF0B1000D7
:1007BA00A805E10B1000A804110013021000320072
:1007CA001100120210003100A3046509A305EF0B02
:1007DA0010007C0010001C02000F43062C0A010FB7
:1007EA004306330A030F43064E0A010F43060B0B57
:0407FA00ED0BEF0B09
:021FFE00F000F1
:00000001FF
