:04000000A3043B0A10
:1000080010000D023300C80511022D0010022C004B
:10001800010CCC0130000D0231000306B102000CC6
:10002800F101200C9001110143071B0A1C0A350A33
:1000380070007100010CD20132003C0C92014307A0
:10004800260A270A350A7200010CD60136000D0C63
:1000580096014307300A310A350A7600B602350A96
:10006800350AC804AB04380A13022D001F00A30484
:100078003D0AA3043F0A700071007200A3044909F5
:10008800A30436001000A3044A0A010811006700FF
:100098006800C80C02006A00100067006800000CC5
:1000A8000700800C08001300A5050B0510001602B8
:1000B8003400040C350003047403F5025F0A1402CB
:0800C8002700120228005A0A69
:021FFE00F000F1
:00000001FF
